:060000000A128A112028FB
:100008008B1C0900081C09280D288B10013088005A
:0A00180009008B1000308800090079
:10004000031383164030810003138316FF3095009D
:100050008B01D0308B000313831670308F00031791
:100060008316890103178316880103138316FF3053
:10007000860088010030850003138312860100305A
:100080008800013085000313831249200130850662
:100090004328FF30A100FF30A000A00B4D28A10B8A
:0400A0004B280800E1
:04400E00E400FF3F8C
:00000001FF
